:04000000FEEFFFF020
:102600000000000000DCCFD1350000000000C01544
:102610003F6042A20D70A5EC363BAAB83F4F38761A
:102620003F3CAA38338CBEBF350072313F1872313F
:102630003F4CBB31330EEADDB555B38A38610B36FA
:10264000BBABAA2A3E42F1533E55326C3E05A38BEA
:102650003EABAAAA3EB76DDB3E9A99193F6042A2F3
:102660000DCAF249710000804B0000803F0000C09D
:0F2670003F00AAB83FC623F6B80040763F0000EF
:10268000C390C382C384C386A30E016E550EE82E89
:10269000FED7012EFCD700F0D3B851EF13F053EF63
:1026A00013F05EEF13F0A30E016E550EE82EFED769
:1026B000012EFCD700F0010E91EF14F0D3BA63EFB6
:1026C00013F065EF13F070EF13F0A30E016E550ECB
:1026D000E82EFED7012EFCD700F0020E91EF14F089
:1026E000D3BC75EF13F077EF13F082EF13F0A30E66
:1026F000016E550EE82EFED7012EFCD700F0030E1A
:1027000091EF14F0D3BE87EF13F089EF13F094EF3D
:1027100013F0A30E016E550EE82EFED7012EFCD746
:1027200000F00A0E91EF14F0C380C392C384C386F5
:10273000A30E016E550EE82EFED7012EFCD700F039
:10274000D3B8A5EF13F0A7EF13F0B2EF13F0A30E79
:10275000016E550EE82EFED7012EFCD700F0040EB8
:1027600091EF14F0D3BAB7EF13F0B9EF13F0C4EF51
:1027700013F0A30E016E550EE82EFED7012EFCD7E6
:1027800000F0050E91EF14F0D3BCC9EF13F0CBEFBE
:1027900013F0D6EF13F0A30E016E550EE82EFED700
:1027A000012EFCD700F0060E91EF14F0D3BEDBEF44
:1027B00013F0DDEF13F0E8EF13F0A30E016E550EEA
:1027C000E82EFED7012EFCD700F00B0E91EF14F08F
:1027D000C380C382C394C386A30E016E550EE82E38
:1027E000FED7012EFCD700F0D3B8F9EF13F0FBEFC2
:1027F00013F006EF14F0A30E016E550EE82EFED76F
:10280000012EFCD700F0070E91EF14F0D3BA0BEFB6
:1028100014F00DEF14F018EF14F0A30E016E550E26
:10282000E82EFED7012EFCD700F0080E91EF14F031
:10283000D3BC1DEF14F01FEF14F02AEF14F0A30E19
:10284000016E550EE82EFED7012EFCD700F0090EC2
:1028500091EF14F0D3BE2FEF14F031EF14F03CEFF2
:1028600014F0A30E016E550EE82EFED7012EFCD7F4
:1028700000F00C0E91EF14F0C380C382C384C396A2
:10288000A30E016E550EE82EFED7012EFCD700F0E8
:10289000D3B84DEF14F04FEF14F05AEF14F0A30E2D
:1028A000016E550EE82EFED7012EFCD700F00E0E5D
:1028B00091EF14F0D3BA5FEF14F061EF14F06CEF06
:1028C00014F0A30E016E550EE82EFED7012EFCD794
:1028D00000F0000E91EF14F0D3BC71EF14F073EF21
:1028E00014F07EEF14F0A30E016E550EE82EFED705
:1028F000012EFCD700F00F0E91EF14F0D3BE83EF42
:1029000014F085EF14F090EF14F0A30E016E550E45
:10291000E82EFED7012EFCD700F00D0E91EF14F03B
:10292000780E1200036ED5EF14F03F0E046E1EEF0A
:1029300015F0060E046E1EEF15F05B0E046E1EEF12
:1029400015F04F0E046E1EEF15F0660E046E1EEFAE
:1029500015F06D0E046E1EEF15F07D0E046E1EEF69
:1029600015F0070E046E1EEF15F07F0E046E1EEFBD
:1029700015F0670E046E1EEF15F0770E046E1EEF55
:1029800015F07C0E046E1EEF15F0580E046E1EEF4F
:1029900015F05E0E046E1EEF15F0790E046E1EEF3C
:1029A00015F0710E046E1EEF15F00350016E026AF1
:1029B0000250000AD8B4DFEF14F0D1EF14F0015048
:1029C000000AD8B495EF14F0010AD8B499EF14F0C6
:1029D000030AD8B49DEF14F0010AD8B4A1EF14F0A3
:1029E000070AD8B4A5EF14F0010AD8B4A9EF14F07F
:1029F000030AD8B4ADEF14F0010AD8B4B1EF14F063
:102A00000F0AD8B4B5EF14F0010AD8B4B9EF14F036
:102A1000030AD8B4BDEF14F0010AD8B4C1EF14F022
:102A2000070AD8B4C5EF14F0010AD8B4C9EF14F0FE
:102A3000030AD8B4CDEF14F0D1EF14F00450120013
:102A4000000EC26E000EC16E000EBE6E000EC36E92
:102A5000000EBF6E000EC06E070ECA6EF00ECB6E7B
:102A6000C668000EC76EF00EC86EC968040118690A
:102A7000F00E106F000E086F070E206F000E286F0B
:102A80000069000E196F000E296F000E216F000EF5
:102A9000096F000E016F000E116F000E0201896FA9
:102AA000000E886F000E876F000E866F000E040107
:102AB000226F000E2A6F000E026F000E0A6F000ECA
:102AC000126F000E1A6F03690B6913691B69070EF9
:102AD000236F2B6904690C6914691C690F0E246F3C
:102AE0002C691200000E0001606F000E616F000E75
:102AF000636F000E646F000E656F000E666F000E50
:102B0000676F000E686F1200066E010EC06E0650F1
:102B100092EC14F0BF6EA30E056E550EE82EFED794
:102B2000052EFCD700F01200620E0001AD6F000E02
:102B3000AF6F000EB36F020EB16F000EB06F000EDC
:102B4000AC6F1200B7EC15F040EC13F0076E0750B5
:102B500084EC15F0A4EF15F0FEEFFFF00D6A0C6A9F
:102B60000B6A0A6A096A086A0001A2EF15F072ECA2
:0C2B700015F020EC15F094EC15F01200AC
:020000040001F9
:04FFFC00AEEF15F05F
:020000040020DA
:10000000FF0FFF0FFF0FFF0FFF0FFF0FFF0FFF0F80
:10001000FF0FFF0FFF0FFF0FFF0FFF0FFF0FFF0F70
:10002000FF0FFF0FFF0FFF0FFF0FFF0FFF0FFF0F60
:10003000FF0FFF0FFF0FFF0FFF0FFF0FFF0FFF0F50
:020000040030CA
:0A000000ECFFF7FF9FFFFFFFFFFF7B
:00000001FF
