:04000000FEEFFFF020
:020000040001F9
:10FC78000001B4EFFEF054ECFEF066ECFEF046EC4A
:10FC8800FEF01200620E0001AD6F000EAF6F000EA5
:10FC9800B36F020EB16F000EB06F000EAC6F1200A2
:10FCA800000E0001606F000E616F000E636F000EA2
:10FCB800646F000E656F000E666F000E676F000EB2
:10FCC800686F1200000EC26E000EC16E000EBE6E8E
:10FCD800000EC36E000EBF6E000EC06E070ECA6E19
:10FCE800CB68000EC66EC768C868C9680401186981
:10FCF80010690869070E206F2869000E006F000E52
:10FD0800196F000E296F000E216F000E096F000E8B
:10FD1800016F000E116F000E0201896F000E886FCF
:10FD2800000E876F000E866F000E0401226F000E12
:10FD38002A6F000E026F000E0A6F000E126F000E7F
:10FD48001A6F03690B6913691B69070E236F2B6907
:10FD580004690C6914691C690F0E246F2C69120060
:10FD68003FECFEF0BEB6BBEFFEF0BEEFFEF0010EBC
:10FD7800BFEFFEF0000EFF0A016E01460146014684
:10FD8800BE500118F70B0118BE6EBEB8CEEFFEF0DC
:10FD9800D1EFFEF0010ED2EFFEF0000EFF0A016E69
:10FDA800013ABE500118EF0B0118BE6E210E016E0C
:10FDB800760EE82EFED7012EFCD700D0BEB4E7EFB2
:10FDC800FEF0EAEFFEF0010EEBEFFEF0000EFF0A88
:10FDD800016E01460146BE500118FB0B0118BE6EAC
:10FDE800BEBAF9EFFEF0FCEFFEF0010EFDEFFEF0FB
:10FDF800000EFF0A016E013A0146BE500118DF0BE2
:10FE08000118BE6E210E016E760EE82EFED7012E69
:10FE1800FCD700D0BEB213EFFFF016EFFFF0010ED3
:10FE280017EFFFF0000EFF0A016E0146BE500118E1
:10FE3800FD0B0118BE6EBEBC24EFFFF027EFFFF0EC
:10FE4800010E28EFFFF0000EFF0A016E013A01468D
:10FE58000146BE500118BF0B0118BE6E210E016E7F
:10FE6800760EE82EFED7012EFCD700D0BEB03FEFAD
:10FE7800FFF042EFFFF0010E43EFFFF0000EFF0A24
:10FE8800016EBE500118FE0B0118BE6EBEBE4FEFCC
:10FE9800FFF052EFFFF0010E53EFFFF0000EFF0AE4
:10FEA800016E01320132BE5001187F0B0118BE6E7F
:10FEB800210E016E760EE82EFED7012EFCD700D05B
:10FEC800BEB669EFFFF06CEFFFF0010E6DEFFFF0CB
:10FED800000EFF0A016E014601460146BE50011898
:10FEE800F70B0118BE6EBEB87CEFFFF07FEFFFF096
:10FEF800010E80EFFFF0000EFF0A016E013ABE50BE
:10FF08000118EF0B0118BE6EBEB48DEFFFF090EF35
:10FF1800FFF0010E91EFFFF0000EFF0A016E01469F
:10FF28000146BE500118FB0B0118BE6EBEBA9FEF0A
:10FF3800FFF0A2EFFFF0010EA3EFFFF0000EFF0AA3
:10FF4800016E013A0146BE500118DF0B0118BE6E62
:10FF5800BEB2B1EFFFF0B4EFFFF0010EB5EFFFF066
:10FF6800000EFF0A016E0146BE500118FD0B011874
:10FF7800BE6EBEBCC2EFFFF0C5EFFFF0010EC6EFCC
:10FF8800FFF0000EFF0A016E013A01460146BE501D
:10FF98000118BF0B0118BE6EBEB0D5EFFFF0D8EF49
:10FFA800FFF0010ED9EFFFF0000EFF0A016EBE5000
:10FFB8000118FE0B0118BE6EBEBEE5EFFFF0E8EFBC
:10FFC800FFF0010EE9EFFFF0000EFF0A016E0132AB
:10FFD8000132BE5001187F0B0118BE6E210E016E52
:10FFE800760EE82EFED7012EFCD700D0B6EFFEF035
:08FFF800FEEFFFF03CEFFEF00C
:020000040020DA
:10000000FF0FFF0FFF0FFF0FFF0FFF0FFF0FFF0F80
:10001000FF0FFF0FFF0FFF0FFF0FFF0FFF0FFF0F70
:10002000FF0FFF0FFF0FFF0FFF0FFF0FFF0FFF0F60
:10003000FF0FFF0FFF0FFF0FFF0FFF0FFF0FFF0F50
:020000040030CA
:0A000000ECFFF7FF9FFFFFFFFFFF7B
:00000001FF
